:020000040000FA
:0400000007EF00F016
:10000800568282ED07F0E3EF06F01250800B1B6E6C
:1000180012501224216E11BE21802150D8B40DD067
:100028002128D8A408D0000E0F6E000E106E000E06
:10003800116E000E126E118E08D0000E0F6E000E9B
:10004800106E000E116E000E126E1650800B1B1AE9
:1000580016501624206E15BE20802050D8B40DD01E
:100068002028D8A408D0000E136E000E146E000EBF
:10007800156E000E166E158E08D0000E136E000E4B
:10008800146E000E156E000E166E2050D8B403D0F4
:100098002150D8A409D0000E0F6E000E106E000E6D
:1000A800116E000E126E120015500F02F3CF26F0DB
:1000B800F4CF27F026501C6E1D6A1E6A1F6A27504F
:1000C800226E236A246A256A14501002F3CF26F0A0
:1000D800F4CF27F026501C26000E1D221E221F22B8
:1000E80027502226000E23222422252213501102F3
:1000F800F3CF26F0F4CF27F026501C26000E1D2241
:100108001E221F2227502226000E232224222522C7
:100118001EC01FF01DC01EF01CC01DF01C6A13502D
:100128001002F3CF26F0F4CF27F026501C262750D4
:100138001D22000E1E22000E1F2214500F02F3CFA4
:1001480026F0F4CF27F026501C2627501D22000E3B
:100158001E22000E1F221EC01FF01DC01EF01CC054
:100168001DF01C6A13500F02F3CF26F0F4CF27F0CE
:1001780026501C2627501D22000E1E22000E1F226C
:1001880015501002F3CF26F0F4CF27F02650222680
:1001980027502322000E2422000E2522145011027B
:1001A800F3CF26F0F4CF27F026502226275023221B
:1001B800000E2422000E252215501102F3CF26F03E
:1001C800F4CF27F02650176E2750186E196A1A6A4E
:1001D80019C01AF018C019F017C018F0176A17508C
:1001E800222618502322195024221A5025221CC0D6
:1001F80017F01DC018F01EC019F01FC01AF0190E14
:1002080005D0D8901A32193218321732E82EF9D799
:100218001750222618502322195024221A5025221A
:100228001EC01FF01DC01EF01CC01DF01C6A20500F
:1002380021C017F0186A1726000E1822820E1724FC
:10024800266EFF0E1820276E0FD0D8902236233640
:10025800243625361FBE2280D8901C361D361E3601
:100268001F362606D8A0270624AEEFD7000E206E2C
:100278001FAE17D0FF0E1C14176EFF0E1D14186E3C
:10028800FF0E1E14196E7F0E1F141A6E17501810C9
:1002980019101A10D8B403D0010E206E02D022B063
:1002A800FBD72050D8B41FD0010E2226000E2322DF
:1002B8002422252225A017D022C017F023C018F029
:1002C80024C019F025C01AF01A341A32193218321B
:1002D800173217C022F018C023F019C024F01AC032
:1002E80025F0264A272A27BE0DD0275003E12628C5
:1002F800D8A008D0000E226E000E236E800E246E49
:100308007F0E20D027BE05D027500EE12604D8B096
:100318000BD0000E226E000E236E000E246E000E0F
:10032800256E000E1B6E0FD026C021F0FF0E221680
:10033800FF0E23167F0E2416000E251621B0248EDC
:10034800D8902130256E1B50251222C00FF023C0F3
:1003580010F024C011F025C012F0120050C001F0B6
:1003680051C002F0000E046E0A0E036E99EC07F0FD
:100378004E500124096E4F5002200A6E59D0000ECB
:10038800456E010E07D0000E456E000E4BD0000ED4
:10039800456E000E446E000E436E020E47D0000EEE
:1003A800456E000E446E000E436E030E3FD0000EE5
:1003B800456E000E446E000E436E040E37D0000EDC
:1003C800456E000E446E000E436E050E2FD0000ED3
:1003D800456E000E446E000E436E060E27D0000ECA
:1003E800456E000E446E000E436E070E1FD0000EC1
:1003F800456E000E446E000E436E080E17D0000EB8
:10040800456E000E446E000E436E090E0FD0000EAE
:10041800456E010E446E000E436E000E07D0000EAE
:10042800456E010E446E000E436E010E426E51D0B1
:1004380009C007F00AC008F00850000AD8A449D03B
:100448000750000AD8B49BD7010AD8B49CD7030A2E
:10045800D8B49DD7010AD8B4A2D7070AD8B4A7D769
:10046800010AD8B4ACD7030AD8B4B1D7010AD8B4B2
:10047800B6D70F0AD8B4BBD7010AD8B4C0D7030A75
:10048800D8B4C5D7010AD8B4CAD7070AD8B477D719
:10049800010AD8B478D7030AD8B479D7010AD8B4EE
:1004A8007ED71F0AD8B483D7010AD8B488D7030ADD
:1004B800D8B48DD7010AD8B492D7070AD8B497D739
:1004C800010AD8B49CD7030AD8B4A1D7010AD8B472
:1004D800A6D7440E546E000E556E420E526E000E94
:1004E800536E120081B2FED7000E396E000E386EC0
:1004F800010E376E900E366EC30EC216C282C2B29D
:10050800FED7C4CF3AF03B6A3A50336E326AC350D2
:1005180032243A6E000E33203B6E710E136E3D0E80
:10052800146EFA0E156E3E0E166E3AC001F03BC000
:1005380002F0000E02BEFF0E036E046E010E1AECEE
:1005480003F001C00FF002C010F003C011F004C0A6
:1005580012F009EC00F00FC028F010C029F011C00B
:100568002AF012C02BF018EC05F028C03AF029C088
:100578003BF03AC009F03BC00AF0000E0C6E0A0EC0
:100588000B6EABEC06F009C034F00AC035F0000E73
:10059800046E0A0E036E3AC001F03BC002F069EC2B
:1005A80006F001C009F002C00AF0000E0C6E0A0E37
:1005B8000B6EABEC06F009C038F00AC039F031D048
:1005C800D8903434D96E3534DA6E600ED926000EE0
:1005D800DA22DF508C6E020E896E070E326E7D0EA7
:1005E800E82EFED7322EFCD700F038503910D8B498
:1005F80015D0D8903834D96E3934DA6E600ED926D1
:10060800000EDA22DF508C6E040E896E070E326EF1
:100618007D0EE82EFED7322EFCD700F03606D8A085
:10062800370636503710D8B41200CAD7096E0950A9
:10063800D8A404AE1AD001C005F002C006F003C069
:1006480007F004C008F0051E061E071E081E052A2E
:10065800000E06220722082205C00BF006C00CF087
:1006680007C00DF008C00EF008D001C00BF002C0A2
:100678000CF003C00DF004C00EF00150021003107E
:100688000410D8A409D0000E016E000E026E000EF0
:10069800036E000E046E1200960E0A6E06D00A2A29
:1006A800D8900E320D320C320B32000E0B14056E40
:1006B800000E0C14066E000E0D14076EFE0E0E14BE
:1006C800086E0550061007100810D8B40DD0E7D7EB
:1006D8000A2A010E0B26000E0C220D220E22D8909B
:1006E8000E320D320C320B32000E0B14056E000E5A
:1006F8000C14066E000E0D14076EFF0E0E14086E15
:100708000550061007100810D8B407D0E1D70A061C
:10071800D8900B360C360D360E360DBE03D0020EB1
:100728000A60F5D70AA00D9ED8900A320AC005F0D3
:10073800066A076A086A05C008F0076A066A056A51
:1007480005500B1206500C1207500D1208500E12CD
:100758000950D8A404AE01D00E8E0BC001F00CC015
:1007680002F00DC003F00EC004F01200000E046E7B
:10077800050E036E8BD0D8904634D96E4734DA6EA6
:10078800600ED926000EDA22DF508C6E3E043F1030
:10079800D8A404D003040410D8A40AD0020E896E89
:1007A800070E016E7D0EE82EFED7012EFCD700F055
:1007B800D8904834D96E4934DA6E600ED926000EC6
:1007C800DA22DF508C6E020E3E183F10D8A404D0F7
:1007D80003040410D8A40AD0040E896E070E016E13
:1007E8007D0EE82EFED7012EFCD700F052C0D9FFAF
:1007F80053C0DAFFDECF01F0DDCF02F0D89001362A
:100808000236600E0124D96E000E0220DA6EDF5027
:10081800800F8C6E030E3E183F10D8A404D003043A
:100828000410D8A40AD0080E896E070E016E7D0E3A
:10083800E82EFED7012EFCD700F054C0D9FF55C0D2
:10084800DAFFDECF01F0DDCF02F0D89001360236B4
:10085800600E0124D96E000E0220DA6EDF508C6E15
:10086800030E3E183F10D8A404D003040410D8A4E3
:100878000AD0100E896E070E016E7D0EE82EFED787
:10088800012EFCD700F00306D8A00406035004107C
:10089800D8B4120070D7D8904634D96E4734DA6E7F
:1008A800600ED926000EDA22DF508C6E020E896E99
:1008B800070E016E7D0EE82EFED7012EFCD700F044
:1008C800D8904834D96E4934DA6E600ED926000EB5
:1008D800DA22DF508C6E040E896E070E016E7D0ED3
:1008E800E82EFED7012EFCD700F052C0D9FF53C026
:1008F800DAFFDECF01F0DDCF02F0D8900136023604
:10090800600E0124D96E000E0220DA6EDF50800FCF
:100918008C6E080E896E070E016E7D0EE82EFED7CE
:10092800012EFCD700F054C0D9FF55C0DAFFDECF46
:1009380001F0DDCF02F0D89001360236600E0124B6
:10094800D96E000E0220DA6EDF508C6E100E896EA2
:10095800070E016E7D0EE82EFED7012EFCD700F0A3
:10096800120081A02CD081B0FED73E4A3F2A14D075
:10097800460E3C6E000E3D6E1200480E3C6E000E98
:100988003D6E12004E0E3C6E000E3D6E1200000EC3
:100998003F6E000E3E6E12003EC003F03FC004F0F2
:1009A8000450000AD8A4F3D70350010AD8B4E0D7FA
:1009B800030AD8B4E2D7010AD8B4E4D7E8D781A2A9
:1009C8001CD081B2FED73CC0D9FF3DC0DAFFDE2A79
:1009D800000EDD2209D03AEC07F012005EEC07F0B9
:1009E8001200D1EC05F012003EC003F03FC004F045
:1009F8000450000AD8A412000CD081A4120081B4BB
:100A0800FED73CC0D9FF3DC0DAFFDE06000EDD5A36
:100A1800EBD70350010AD8B4DED7030AD8B4DED71F
:100A2800010AD8A41200DDD72A342B34316E315094
:100A3800D8A409D0000E286E000E296E000E2A6E6A
:100A4800000E2B6E120028C02CF029C02DF02AC0F1
:100A58002EF02BC02FF0200E05D0D8902F322E323A
:100A68002D322C32E82EF9D72C50306E2A8EFF0EFC
:100A78002816FF0E2916FF0E2A16000E2B16960EA4
:100A8800315E31AE0DD03150800A970FD8A0D2D741
:100A9800D8902B322A3229322832313EF9D70DD05C
:100AA8001F0E316407D0C6D7D890283629362A3683
:100AB8002B3631063150D8A4F7D73050D8B408D0E7
:100AC8002B1E2A1E291E286C000E29222A222B22C0
:100AD80028C028F029C029F02AC02AF02BC02BF002
:100AE8001200C2800E0EC16EA50EC06E010E936E6E
:100AF800000E956E010E926E000E946EF28EF28AC2
:100B0800F294870ED56E670ED76E680ED66E500EAD
:100B1800546E000E556E4E0E526E000E536E81A22C
:100B280007D03E503F10D8A403D076EC02F016D080
:100B380081A409D03E503F10D8A405D081B4FED777
:100B4800401E411E0BD081B007D081B202D081A4D3
:100B580005D03E503F10D8A4B5EC04F020EC06F0C8
:100B680040504110D8A40BD0500E546E000E556E54
:100B78004E0E526E000E536E000E8B6E04D010ECAB
:100B880007F0B2EC01F03E503F10D8A403D04FEC70
:100B980004F0C5D7BAEC03F0C2D750045110D8A45A
:100BA80016D03CC0D9FF3DC0DAFFDE2810E1DE28B0
:100BB800D8A40DD0000E516E000E506E3CC0D9FF67
:100BC8003DC0DAFF090EDE6E000EDD6E1200020E69
:100BD80050185110D8A416D03CC0D9FF3DC0DAFF38
:100BE800040EDE18DE10D8A40DD0000E516E000ED3
:100BF800506E3CC0D9FF3DC0DAFF000EDE6E000E1D
:100C0800DD6E120050505110D8A412003CC0D9FF1C
:100C18003DC0DAFFDE280FE1DE28D8A41200000E5E
:100C2800516E020E506E3CC0D9FF3DC0DAFF030E74
:100C3800DE6E000EDD6E1200020E50185110D8A4A0
:100C480022D0030E4E184F10D8A41DD0050E4818F8
:100C58004910D8A418D00A0E46184710D8A413D0A3
:100C6800000E516E000E506E000E4F6E000E4E6E4E
:100C7800000E496E000E486E000E476E000E466E5E
:100C8800ACEC07F012000A0E46184710D8A406D09C
:100C9800000E476E000E466E484A492A060E48184E
:100CA8004910D8A406D0000E496E000E486E4E4A70
:100CB8004F2A0A0E4E184F10D8A41200000E4F6E7D
:100CC800000E4E6E504A512A1200000E066E04AEF7
:100CD80006D0036C041ED8B0042A010E066E02AEBC
:100CE80006D0016C021ED8B0022A010E061A000EA8
:100CF800086E000E076E03500410D8B41CD0010E05
:100D0800056E04D0D89003360436052A04AEFAD707
:100D1800D890073608360350015C04500258D8A012
:100D280005D00350015E0450025A0780D89004325F
:100D38000332052EEDD70650D8B404D0076C081E30
:100D4800D8B0082A07C001F008C002F01200000E4F
:100D58000E6E0AAE06D0096C0A1ED8B00A2A010E19
:100D68000E6E0CAE04D00B6C0C1ED8B00C2A0B50B7
:100D78000C10D8B418D0010E0D6E04D0D8900B36D4
:100D88000C360D2A0CAEFAD70B50095C0C500A58D9
:100D9800D8A004D00B50095E0C500A5AD8900C32D7
:100DA8000B320D2EF1D70E50D8B404D0096C0A1EA0
:100DB800D8B00A2A09C009F00AC00AF01200740E55
:100DC800F66E0F0EF76E000EF86E00EE60F010EE85
:100DD80014F00900F5CFEEFFE550E150FAE1880E76
:100DE800F66E0F0EF76E000EF86E00EE4AF010EE7B
:100DF80008F00900F5CFEEFFE550E150FAE100EE0A
:100E08003CF00E0EEE6AE806FDE156905692000E92
:100E1800F86E000175EF05F04FBE0CD04FBE06D03E
:100E28004F5008E10A0E4E5CD8B004D05050511013
:100E3800D8B40ED04FBE13D04FBE06D04F500FE1DE
:100E4800020E4E5CD8B00BD050045110D8A407D075
:100E5800000E4D6E000E4C6E010E8B6E1200000ED1
:100E68004D6E010E4C6E020E8B6E12003CC0D9FF07
:100E78003DC0DAFFDE280CE1DE28D8A409D03CC04A
:100E8800D9FF3DC0DAFF090EDE6E000EDD6E1200DE
:100E98003CC0D9FF3DC0DAFF0A0EDE18DE10D8A428
:100EA80012003CC0D9FF3DC0DAFF000EDE6E000E16
:100EB800DD6E12003CC0D9FF3DC0DAFFDE280CE130
:100EC800DE28D8A409D03CC0D9FF3DC0DAFF050E02
:100ED800DE6E000EDD6E12003CC0D9FF3DC0DAFFA9
:100EE800060EDE18DE10D8A412003CC0D9FF3DC0A3
:100EF800DAFF000EDE6E000EDD6E12000600F2A4B0
:100F080012D04A06D8A04B064A504B10D8A406D097
:100F1800000E4B6E060E4A6E464A472AF294670E3A
:100F2800D76E680ED66E5692110001500302F3CFA9
:100F380005F0F4CF06F001500402F35006260250E3
:100F48000302F350062605C001F006C002F01200A5
:100F5800D59E020E026E450E016EAA0EE82EFED731
:100F6800012EFCD7022EFAD7D58E12003F000600BC
:100F78005B004F0066006D007D0047007F00670042
:080F8800060001000200010057
:020000040020DA
:08000000FFFFFFFFFFFFFFFF00
:020000040030CA
:0E0000000000191EFF0080FF0FC00FE00F4030
:00000001FF
