:020000040000FA
:0400000007EF00F016
:100008005E826BED06F04EEF06F01250800B1B6E11
:1000180012501224216E11BE21802150D8B40DD067
:100028002128D8A408D0000E0F6E000E106E000E06
:10003800116E000E126E118E08D0000E0F6E000E9B
:10004800106E000E116E000E126E1650800B1B1AE9
:1000580016501624206E15BE20802050D8B40DD01E
:100068002028D8A408D0000E136E000E146E000EBF
:10007800156E000E166E158E08D0000E136E000E4B
:10008800146E000E156E000E166E2050D8B403D0F4
:100098002150D8A409D0000E0F6E000E106E000E6D
:1000A800116E000E126E120015500F02F3CF26F0DB
:1000B800F4CF27F026501C6E1D6A1E6A1F6A27504F
:1000C800226E236A246A256A14501002F3CF26F0A0
:1000D800F4CF27F026501C26000E1D221E221F22B8
:1000E80027502226000E23222422252213501102F3
:1000F800F3CF26F0F4CF27F026501C26000E1D2241
:100108001E221F2227502226000E232224222522C7
:100118001EC01FF01DC01EF01CC01DF01C6A13502D
:100128001002F3CF26F0F4CF27F026501C262750D4
:100138001D22000E1E22000E1F2214500F02F3CFA4
:1001480026F0F4CF27F026501C2627501D22000E3B
:100158001E22000E1F221EC01FF01DC01EF01CC054
:100168001DF01C6A13500F02F3CF26F0F4CF27F0CE
:1001780026501C2627501D22000E1E22000E1F226C
:1001880015501002F3CF26F0F4CF27F02650222680
:1001980027502322000E2422000E2522145011027B
:1001A800F3CF26F0F4CF27F026502226275023221B
:1001B800000E2422000E252215501102F3CF26F03E
:1001C800F4CF27F02650176E2750186E196A1A6A4E
:1001D80019C01AF018C019F017C018F0176A17508C
:1001E800222618502322195024221A5025221CC0D6
:1001F80017F01DC018F01EC019F01FC01AF0190E14
:1002080005D0D8901A32193218321732E82EF9D799
:100218001750222618502322195024221A5025221A
:100228001EC01FF01DC01EF01CC01DF01C6A20500F
:1002380021C017F0186A1726000E1822820E1724FC
:10024800266EFF0E1820276E0FD0D8902236233640
:10025800243625361FBE2280D8901C361D361E3601
:100268001F362606D8A0270624AEEFD7000E206E2C
:100278001FAE17D0FF0E1C14176EFF0E1D14186E3C
:10028800FF0E1E14196E7F0E1F141A6E17501810C9
:1002980019101A10D8B403D0010E206E02D022B063
:1002A800FBD72050D8B41FD0010E2226000E2322DF
:1002B8002422252225A017D022C017F023C018F029
:1002C80024C019F025C01AF01A341A32193218321B
:1002D800173217C022F018C023F019C024F01AC032
:1002E80025F0264A272A27BE0DD0275003E12628C5
:1002F800D8A008D0000E226E000E236E800E246E49
:100308007F0E20D027BE05D027500EE12604D8B096
:100318000BD0000E226E000E236E000E246E000E0F
:10032800256E000E1B6E0FD026C021F0FF0E221680
:10033800FF0E23167F0E2416000E251621B0248EDC
:10034800D8902130256E1B50251222C00FF023C0F3
:1003580010F024C011F025C012F0120081B2FED7AF
:10036800000E396E000E386E010E376E900E366E26
:10037800C30EC216C282C2B2FED7C4CF3AF03B6ADD
:100388003A50336E326AC35032243A6E000E33202C
:100398003B6E710E136E3D0E146EFA0E156E3E0E08
:1003A800166E3AC001F03BC002F0000E02BEFF0E0E
:1003B800036E046E010E56EC02F001C00FF002C08D
:1003C80010F003C011F004C012F009EC00F00FC0E7
:1003D80028F010C029F011C02AF012C02BF0A5ECAB
:1003E80004F028C03AF029C03BF03AC009F03BC0FD
:1003F8000AF0000E0C6E0A0E0B6E9AEC05F009C09E
:1004080034F00AC035F0000E046E0A0E036E3AC0CE
:1004180001F03BC002F058EC05F001C009F002C041
:100428000AF0000E0C6E0A0E0B6E9AEC05F009C06D
:1004380038F00AC039F031D0D8903434D96E353418
:10044800DA6E3C0ED926000EDA22DF508C6E020ED0
:10045800896E070E326E7D0EE82EFED7322EFCD73F
:1004680000F038503910D8B415D0D8903834D96E37
:100478003934DA6E3C0ED926000EDA22DF508C6E43
:10048800040E896E070E326E7D0EE82EFED7322ED0
:10049800FCD700F03606D8A0370636503710D8B447
:1004A8001200CAD7096E0950D8A404AE1AD001C0E8
:1004B80005F002C006F003C007F004C008F0051EEE
:1004C800061E071E081E052A000E062207220822FD
:1004D80005C00BF006C00CF007C00DF008C00EF008
:1004E80008D001C00BF002C00CF003C00DF004C02E
:1004F8000EF00150021003100410D8A409D0000E09
:10050800016E000E026E000E036E000E046E1200E5
:10051800960E0A6E06D00A2AD8900E320D320C3288
:100528000B32000E0B14056E000E0C14066E000E36
:100538000D14076EFE0E0E14086E055006100710F7
:100548000810D8B40DD0E7D70A2A010E0B26000EE2
:100558000C220D220E22D8900E320D320C320B32A4
:10056800000E0B14056E000E0C14066E000E0D1412
:10057800076EFF0E0E14086E0550061007100810BF
:10058800D8B407D0E1D70A06D8900B360C360D360A
:100598000E360DBE03D0020E0A60F5D70AA00D9ED6
:1005A800D8900A320AC005F0066A076A086A05C0C8
:1005B80008F0076A066A056A05500B1206500C1205
:1005C80007500D1208500E120950D8A404AE01D0DD
:1005D8000E8E0BC001F00CC002F00DC003F00EC06F
:1005E80004F01200000E036E050E026E7BD0D89048
:1005F8005A34D96E5B34DA6E3C0ED926000EDA22F4
:10060800DF508C6E58045910D8A404D0020403108B
:10061800D8A40AD0020E896E070E016E7D0EE82E50
:10062800FED7012EFCD700F0D8905C34D96E5D342B
:10063800DA6E3C0ED926000EDA22DF508C6E020EDE
:1006480058185910D8A404D002040310D8A40AD00A
:10065800040E896E070E016E7D0EE82EFED7012E60
:10066800FCD700F0D8905434D96E5534DA6E3C0E6D
:10067800D926000EDA22DF50800F8C6E030E581830
:100688005910D8A404D002040310D8A40AD0080E24
:10069800896E070E016E7D0EE82EFED7012EFCD75F
:1006A80000F0D8905234D96E5334DA6E3C0ED92605
:1006B800000EDA22DF508C6E030E58185910D8A499
:1006C80004D002040310D8A40AD0100E896E070EB5
:1006D800016E7D0EE82EFED7012EFCD700F0020633
:1006E800D8A0030602500310D8B4120080D75204D1
:1006F8005310D8A405D0020E54185510D8B40AD0F7
:10070800020E52185310D8A410D0030E54185510C6
:10071800D8A40BD0050E5C185D10D8A406D00A0E1C
:100728005A185B10D8B48FEC06F0020E521853100A
:10073800D8A420D0030E54185510D8A41BD0050EE9
:100748005C185D10D8A416D00A0E5A185B10D8A4ED
:1007580011D0000E536E000E526E000E556E000E34
:10076800546E000E5D6E000E5C6E000E5B6E000E29
:100778005A6E12000A0E5A185B10D8A406D0000E42
:100788005B6E000E5A6E5C4A5D2A060E5C185D10A0
:10079800D8A406D0000E5D6E000E5C6E544A552A31
:1007A8000A0E54185510D8A41200000E556E000EEB
:1007B800546E524A532A120081A02CD081B0FED721
:1007C800584A592A14D05A0E566E000E576E120007
:1007D8005C0E566E000E576E1200540E566E000ECA
:1007E800576E1200000E596E000E586E120058C057
:1007F80003F059C004F00450000AD8A4F3D70350FA
:10080800010AD8B4E0D7030AD8B4E2D7010AD8B4A9
:10081800E4D7E8D781A21CD081B2FED756C0D9FF51
:1008280057C0DAFFDE2A000EDD2209D006EC06F0FA
:1008380012002AEC06F0120043EC04F0120058C033
:1008480003F059C004F00450000AD8A412000CD0D8
:1008580081A4120081B4FED756C0D9FF57C0DAFF71
:10086800DE06000EDD5AEBD70350010AD8B4DED7F6
:10087800030AD8B4DED7010AD8A41200DDD752047F
:100888005310D8A416D056C0D9FF57C0DAFFDE28B7
:1008980010E1DE28D8A40DD0000E536E000E526E63
:1008A80056C0D9FF57C0DAFF090EDE6E000EDD6EA6
:1008B8001200020E52185310D8A416D056C0D9FFF1
:1008C80057C0DAFF040EDE18DE10D8A40DD0000ED3
:1008D800536E000E526E56C0D9FF57C0DAFF000E95
:1008E800DE6E000EDD6E1200020E52185310D8A4F0
:1008F8000DD056C0D9FF57C0DAFFDE2807E1DE2841
:10090800D8A404D0000E536E010EC9D7525053100C
:10091800D8A4120056C0D9FF57C0DAFFDE2810E16C
:10092800DE28D8A41200000E536E020E526E56C076
:10093800D9FF57C0DAFF030EDE6E000EDD6E12001F
:1009480012002A342B34316E3150D8A409D0000E4D
:10095800286E000E296E000E2A6E000E2B6E1200F5
:1009680028C02CF029C02DF02AC02EF02BC02FF063
:10097800200E05D0D8902F322E322D322C32E82E70
:10098800F9D72C50306E2A8EFF0E2816FF0E291626
:10099800FF0E2A16000E2B16960E315E31AE0DD0C4
:1009A8003150800A970FD8A0D2D7D8902B322A324C
:1009B80029322832313EF9D70DD01F0E316407D0C5
:1009C800C6D7D890283629362A362B3631063150E4
:1009D800D8A4F7D73050D8B408D02B1E2A1E291E09
:1009E800286C000E29222A222B2228C028F029C090
:1009F80029F02AC02AF02BC02BF01200D8905A34C4
:100A0800D96E5B34DA6E3C0ED926000EDA22DF503E
:100A18008C6E020E896E070E016E7D0EE82EFED7D3
:100A2800012EFCD700F0D8905C34D96E5D34DA6EB4
:100A38003C0ED926000EDA22DF508C6E040E896E29
:100A4800070E016E7D0EE82EFED7012EFCD700F0B2
:100A5800D8905434D96E5534DA6E3C0ED926000E2F
:100A6800DA22DF50800F8C6E080E896E070E016E39
:100A78007D0EE82EFED7012EFCD700F0D890523418
:100A8800D96E5334DA6E3C0ED926000EDA22DF50C6
:100A98008C6E100E896E070E016E7D0EE82EFED745
:100AA800012EFCD700F01200000E066E04AE06D030
:100AB800036C041ED8B0042A010E066E02AE06D0DE
:100AC800016C021ED8B0022A010E061A000E086E2A
:100AD800000E076E03500410D8B41CD0010E056E2A
:100AE80004D0D89003360436052A04AEFAD7D89035
:100AF800073608360350015C04500258D8A005D0C8
:100B08000350015E0450025A0780D8900432033221
:100B1800052EEDD70650D8B404D0076C081ED8B0FF
:100B2800082A07C001F008C002F01200000E0E6E7D
:100B38000AAE06D0096C0A1ED8B00A2A010E0E6E3B
:100B48000CAE04D00B6C0C1ED8B00C2A0B500C1039
:100B5800D8B418D0010E0D6E04D0D8900B360C36D0
:100B68000D2A0CAEFAD70B50095C0C500A58D8A0C5
:100B780004D00B50095E0C500A5AD8900C320B3234
:100B88000D2EF1D70E50D8B404D0096C0A1ED8B077
:100B98000A2A09C009F00AC00AF01200C2800E0E23
:100BA800C16EA50EC06E010E936E000E956E010EFD
:100BB800926EF28EF28AF294870ED56E670ED76E19
:100BC800680ED66E81A207D058505910D8A403D009
:100BD800B2EC01F00BD081B007D081B202D081A471
:100BE80005D058505910D8A4E0EC03F07BEC03F082
:100BF80058505910D8A403D002EC05F0E3D7F6EC0E
:100C080002F0E0D756C0D9FF57C0DAFFDE280CE162
:100C1800DE28D8A409D056C0D9FF57C0DAFF090E7C
:100C2800DE6E000EDD6E120056C0D9FF57C0DAFF27
:100C38000A0EDE18DE10D8A4120056C0D9FF57C01D
:100C4800DAFF000EDE6E000EDD6E120056C0D9FF10
:100C580057C0DAFFDE280CE1DE28D8A409D056C038
:100C6800D9FF57C0DAFF050EDE6E000EDD6E1200EA
:100C780056C0D9FF57C0DAFF060EDE18DE10D8A41A
:100C8800120056C0D9FF57C0DAFF000EDE6E000E04
:100C9800DD6E1200040EF66E0D0EF76E000EF86E85
:100CA80000EE3CF010EE1AF00900F5CFEEFFE5502B
:100CB800E150FAE100EE56F0080EEE6AE806FDE1B2
:100CC8005E905E92000EF86E0001D2EF05F006000D
:100CD800F2A412D05006D8A0510650505110D8A4F2
:100CE80006D0000E516E060E506E5A4A5B2AF294D8
:100CF800670ED76E680ED66E5E9211003F00060032
:100D08005B004F0066006D007D0047007F006700B4
:100D1800060001000200D59EA30E016E550EE82EB6
:0C0D2800FED7012EFCD700F0D58E120083
:020000040020DA
:08000000FFFFFFFFFFFFFFFF00
:020000040030CA
:0E0000000000191EFF0080FF0FC00FE00F4030
:00000001FF
